:100000000C942A000C943C000C943C000C943C0092
:100010000C943C000C943C000C943C000C943C0070
:100020000C943C000C943C000C943C000C943C0060
:100030000C943C000C9487000C943C000C943C0005
:100040000C943C000C943C000C943C000C943C0040
:100050000C943C0011241FBECFE5D8E0DEBFCDBF1D
:1000600020E0A0E6B0E001C01D92A236B207E1F7A1
:100070000E943E000C94AF000C9400000E94770098
:100080000E946800FFCF1F93CF93DF93182FC62FD6
:10009000D72F8FEE0E94810081E00E9481008FEFB8
:1000A0000E9481008FEF0E9481008FEF0E948100EB
:1000B0008FEF0E948100812F0E9481008D2F0E946E
:1000C00081008C2F0E948100DF91CF911F910895B4
:1000D00063E070E081E00E94430080E40E948100C0
:1000E00080E00E94810084E40E948100089583E3FF
:1000F00089B988E98AB980B5806880BD86E880BD05
:1001000008955D9BFECF8CB95E9BFECF08951F9234
:100110000F920FB60F9211242F933F934F935F933B
:100120006F937F938F939F93AF93BF93EF93FF93BF
:100130008CB1E0916000F09161000995FF91EF9121
:10014000BF91AF919F918F917F916F915F914F91EF
:100150003F912F910F900FBE0F901F901895F8941C
:02016000FFCFCF
:00000001FF
