S026000045787465726E616C5F454550524F4D5F41546D65676133324472697665722E7372656335
S11300000C942A000C943F000C943F000C943F0085
S11300100C943F000C943F000C943F000C943F0060
S11300200C943F000C943F000C943F000C943F0050
S11300300C943F000C943F000C943F000C943F0040
S11300400C943F000C943F000C943F000C943F0030
S11300500C943F0011241FBECFE5D8E0DEBFCDBF16
S113006010E0A0E6B0E0E4E9F6E002C005900D92ED
S1130070A437B107D9F70E9471010C9448030C947A
S113008000001F93CF93DF93EC01162F0E94E80228
S1130090CE0188279370880F892F881F990B91951B
S11300A0806A0E94F3028C2F0E941003812F0E9409
S11300B010030E942003DF91CF911F9108950F93A5
S11300C01F93CF93DF938C010E94E802E801CC27B1
S11300D0D370CC0FCD2FCC1FDD0BD1958C2F806A24
S11300E00E94F302802F0E9410030E94FC028C2FB6
S11300F0816A0E9407030E941903C82F0E942003EB
S11301008C2FDF91CF911F910F910895CF93C82F1A
S113011061E08DE00E944202C4FB662760F984E13D
S11301200E944202C5FB662760F985E10E944202F3
S1130130C6FB662760F986E10E9442026C2F661FA7
S11301406627661F88E10E94420261E08CE00E94FB
S113015042028FE99FE00197F1F700C0000060E0E0
S11301608CE00E9442028FE99FE00197F1F700C002
S113017000006C2F617084E10E944202C1FB66277B
S113018060F985E10E944202C2FB662760F986E1BC
S11301900E944202C3FB662760F988E10E94420282
S11301A061E08CE00E9442028FE99FE00197F1F741
S11301B000C0000060E08CE00E9442028FE19EE4F7
S11301C00197F1F700C00000CF910895CF93C82F95
S11301D060E08DE00E944202C4FB662760F984E17E
S11301E00E944202C5FB662760F985E10E94420233
S11301F0C6FB662760F986E10E9442026C2F661FE7
S11302006627661F88E10E94420261E08CE00E943A
S113021042028FE99FE00197F1F700C0000060E01F
S11302208CE00E9442028FE99FE00197F1F700C041
S113023000006C2F617084E10E944202C1FB6627BA
S113024060F985E10E944202C2FB662760F986E1FB
S11302500E944202C3FB662760F988E10E944202C1
S113026061E08CE00E9442028FE99FE00197F1F780
S113027000C0000060E08CE00E9442028FE19EE436
S11302800197F1F700C00000CF91089561E084E187
S11302900E94B90161E085E10E94B90161E086E153
S11302A00E94B90161E088E10E94B90161E08DE03A
S11302B00E94B90161E08CE00E94B90183E30E94CD
S11302C0E60082E30E94E60088E20E94E6008CE0F9
S11302D00E94E60082E00E94E60081E00E94E600BF
S11302E00895CF93DF93CDB7DEB764970FB6F89434
S11302F0DEBF0FBECDBF0E94CB020E9446018CE040
S1130300E0E6F0E0DE01119601900D928A95E1F7A6
S1130310FE013D9688E0DF011D928A95E9F710E021
S113032013C0812F90E0E1E0F0E0EC0FFD1FE80F37
S1130330F91F60814A960E9441008FE39CE901976E
S1130340F1F700C000001F5F1B3058F310E00EC02F
S1130350812F90E04A960E945F000E948600AFE3DE
S1130360BCE91197F1F700C000001F5F1B3080F358
S1130370FFCF9DEC899F912D1124292F2695269539
S11303802695220F322F330F330F230F821B282F72
S1130390969596959695662319F06130E1F1089546
S11303A09230A9F018F4913031F008959330D9F0D7
S11303B0943029F108953AB381E090E002C0880FA7
S11303C0991F2A95E2F7809583238ABB089537B352
S11303D081E090E002C0880F991F2A95E2F780958A
S11303E0832387BB089534B381E090E002C0880F73
S11303F0991F2A95E2F78095832384BB089531B32E
S113040081E090E002C0880F991F2A95E2F7809559
S1130410832381BB08959230A1F018F4913031F018
S113042008959330C9F0943011F108953AB381E0FE
S113043090E002C0880F991F2A95E2F7832B8ABBAC
S1130440089537B381E090E002C0880F991F2A9580
S1130450E2F7832B87BB089534B381E090E002C0B8
S1130460880F991F2A95E2F7832B84BB089531B333
S113047081E090E002C0880F991F2A95E2F7832B50
S113048081BB08959DEC899F912D1124292F2695D8
S113049026952695220F322F330F330F230F821BFD
S11304A0282F969596959695662319F06130E1F17B
S11304B008959230A9F018F4913031F008959330F2
S11304C0D9F0943029F108953BB381E090E002C063
S11304D0880F991F2A95E2F7809583238BBB089593
S11304E038B381E090E002C0880F991F2A95E2F7A3
S11304F08095832388BB089535B381E090E002C0E2
S1130500880F991F2A95E2F78095832385BB089568
S113051032B381E090E002C0880F991F2A95E2F778
S11305208095832382BB08959230A1F018F4913012
S113053031F008959330C9F0943011F108953BB32C
S113054081E090E002C0880F991F2A95E2F7832B7F
S11305508BBB089538B381E090E002C0880F991FE7
S11305602A95E2F7832B88BB089535B381E090E0A8
S113057002C0880F991F2A95E2F7832B85BB089543
S113058032B381E090E002C0880F991F2A95E2F708
S1130590832B82BB089581B18E7F81B981B18D7F18
S11305A081B981B190E0880F991F22E030E002C048
S11305B0220F331F8A95E2F7032E000C440B550BD0
S11305C068E170E080E090E00E94260320B908957D
S11305D084EA86BF06B607FEFDCF81B1887F8830E6
S11305E009F080E0089583B984E886BF06B607FE63
S11305F0FDCF81B1887F089584EA86BF06B607FEE1
S1130600FDCF81B1887F803109F080E0089583B9FE
S113061084E886BF06B607FEFDCF81B1887F0895C2
S113062083B984E886BF06B607FEFDCF81B1887F13
S1130630089584E886BF06B607FEFDCF83B108950A
S113064084E986BF06B604FCFDCF0895A1E21A2E04
S1130650AA1BBB1BFD010DC0AA1FBB1FEE1FFF1F62
S1130660A217B307E407F50720F0A21BB30BE40BB2
S1130670F50B661F771F881F991F1A9469F76095F9
S11306807095809590959B01AC01BD01CF010895B3
S1070690F894FFCF08
S1130694454550524F4D205445535400000000002A
S10706A4000000004E
S9030000FC
