:100000000C942A000C9447000C9447000C94470071
:100010000C9447000C9447000C9447000C94470044
:100020000C9447000C9447000C9447000C94470034
:100030000C9447000C9425020C9447000C94470044
:100040000C9447000C9447000C9447000C94470014
:100050000C94470011241FBECFE5D8E0DEBFCDBF12
:1000600010E0A0E6B0E0EEE9F4E002C005900D92E9
:10007000A437B107D9F720E0A4E7B0E001C01D9292
:10008000A637B207E1F70E94D4000C944D020C94FD
:100090000000CF93C82F60E08DE00E947901C4FB7F
:1000A000662760F984E10E947901C5FB662760F943
:1000B00085E10E947901C6FB662760F986E10E940E
:1000C00079016C2F661F6627661F88E10E947901FF
:1000D00061E08CE00E9479018FE99FE00197F1F7E0
:1000E00000C0000060E08CE00E9479018FE99FE091
:1000F0000197F1F700C000006C2F617084E10E944D
:100100007901C1FB662760F985E10E947901C2FB94
:10011000662760F986E10E947901C3FB662760F9D2
:1001200088E10E94790161E08CE00E9479018FE909
:100130009FE00197F1F700C0000060E08CE00E94B2
:1001400079018FE19EE40197F1F700C00000CF91A3
:10015000089561E084E10E94F00061E085E10E9481
:10016000F00061E086E10E94F00061E088E10E9419
:10017000F00061E08DE00E94F00061E08CE00E9400
:10018000F00083E30E94490082E30E94490088E274
:100190000E9449008CE00E94490082E00E944900D0
:1001A00081E00E9449000895CF93DF93CDB7DEB779
:1001B00063970FB6F894DEBF0FBECDBF83E1E0E6D4
:1001C000F0E0DE01119601900D928A95E1F70E9410
:1001D000A9000E940202CE0101960E941202FFCFE6
:1001E0009DEC899F912D1124292F269526952695E2
:1001F000220F322F330F330F230F821B282F969598
:1002000096959695662319F06130E1F10895923044
:10021000A9F018F4913031F008959330D9F094306A
:1002200029F108953AB381E090E002C0880F991F48
:100230002A95E2F7809583238ABB089537B381E03E
:1002400090E002C0880F991F2A95E2F780958323DA
:1002500087BB089534B381E090E002C0880F991FF6
:100260002A95E2F78095832384BB089531B381E01A
:1002700090E002C0880F991F2A95E2F780958323AA
:1002800081BB08959230A1F018F4913031F00895B7
:100290009330C9F0943011F108953AB381E090E0C1
:1002A00002C0880F991F2A95E2F7832B8ABB089515
:1002B00037B381E090E002C0880F991F2A95E2F7DA
:1002C000832B87BB089534B381E090E002C0880F90
:1002D000991F2A95E2F7832B84BB089531B381E0FF
:1002E00090E002C0880F991F2A95E2F7832B81BB0B
:1002F00008959DEC899F912D1124292F26952695EF
:100300002695220F322F330F330F230F821B282FF6
:10031000969596959695662319F06130E1F10895CA
:100320009230A9F018F4913031F008959330D9F05B
:10033000943029F108953BB381E090E002C0880F2A
:10034000991F2A95E2F7809583238BBB089538B3D4
:1003500081E090E002C0880F991F2A95E2F780950E
:10036000832388BB089535B381E090E002C0880FF5
:10037000991F2A95E2F78095832385BB089532B3B0
:1003800081E090E002C0880F991F2A95E2F78095DE
:10039000832382BB08959230A1F018F4913031F09C
:1003A00008959330C9F0943011F108953BB381E082
:1003B00090E002C0880F991F2A95E2F7832B8BBB30
:1003C000089538B381E090E002C0880F991F2A9504
:1003D000E2F7832B88BB089535B381E090E002C03B
:1003E000880F991F2A95E2F7832B85BB089532B3B6
:1003F00081E090E002C0880F991F2A95E2F7832BD5
:1004000082BB089583E389B988E98AB980B5806899
:1004100080BD86E880BD08955D9BFECF8CB95E9B54
:10042000FECF08950F931F93CF938C01C0E003C0BC
:100430000E940C02CF5FF801EC0FF11D8081811149
:10044000F7CFCF911F910F9108951F920F920FB682
:100450000F9211242F933F934F935F936F937F934A
:100460008F939F93AF93BF93EF93FF938CB1E091E2
:100470007400F09175000995FF91EF91BF91AF91D4
:100480009F918F917F916F915F914F913F912F91AC
:0E0490000F900FBE0F901F901895F894FFCF9D
:10049E0055415254205445524D494E414C205445DD
:0404AE0053540000A3
:00000001FF
