:100000000C942A000C9434000C9434000C943400AA
:100010000C9434000C9434000C9434000C94340090
:100020000C9434000C9434000C9434000C94340080
:100030000C9434000C9434000C9434000C94340070
:100040000C9434000C9434000C9434000C94340060
:100050000C94340011241FBECFE5D8E0DEBFCDBF25
:100060000E9436000C946A000C9400000E94430029
:100070000E94470080EA0E94520080E00E945B00DC
:100080000E946400FFCF11B880E280B9089584EA2D
:1000900086BF06B607FEFDCF81B1887F883009F0A4
:1000A00080E0089583B984E886BF06B607FEFDCFD9
:1000B00081B1887F089583B984E886BF06B607FEBC
:1000C000FDCF81B1887F089584E986BF06B604FC20
:0800D000FDCF0895F894FFCF65
:00000001FF
