S00B00004932432E737265635B
S11300000C942A000C9434000C9434000C943400A6
S11300100C9434000C9434000C9434000C9434008C
S11300200C9434000C9434000C9434000C9434007C
S11300300C9434000C9434000C9434000C9434006C
S11300400C9434000C9434000C9434000C9434005C
S11300500C94340011241FBECFE5D8E0DEBFCDBF21
S11300600E9436000C94A5000C9400000E944300EA
S11300700E94600080EA0E946B0080E00E9474008D
S11300800E947D00FFCF81B18E7F81B981B18D7FC8
S113009081B981B190E0880F991F22E030E002C05D
S11300A0220F331F8A95E2F7032E000C440B550BE5
S11300B060E470E080E090E00E94830020B908953D
S11300C084EA86BF06B607FEFDCF81B1887F8830FB
S11300D009F080E0089583B984E886BF06B607FE78
S11300E0FDCF81B1887F089583B984E886BF06B6C1
S11300F007FEFDCF81B1887F089584E986BF06B6E7
S113010004FCFDCF0895A1E21A2EAA1BBB1BFD011E
S11301100DC0AA1FBB1FEE1FFF1FA217B307E407E2
S1130120F50720F0A21BB30BE40BF50B661F771F3A
S1130130881F991F1A9469F760957095809590951A
S11101409B01AC01BD01CF010895F894FFCFDF
S9030000FC
