:100000000C942A000C943C000C943C000C943C0092
:100010000C943C000C943C000C943C000C943C0070
:100020000C943C000C943C000C943C000C943C0060
:100030000C943C000C94B3000C943C000C943C00D9
:100040000C943C000C943C000C943C000C943C0040
:100050000C943C0011241FBECFE5D8E0DEBFCDBF1D
:1000600020E0A0E6B0E001C01D92AF36B207E1F794
:100070000E944E000C94DB000C94000090916000F4
:10008000E92FF0E0EF59FF4F80839B3019F4109275
:10009000600008959F5F9093600008950E9498000B
:1000A0008EE390E00E94AE0078940E947D00FFCF26
:1000B0001F93CF93DF93182FC62FD72F8FEE0E9459
:1000C000A80081E00E94A8008FEF0E94A8008FEF97
:1000D0000E94A8008FEF0E94A8008FEF0E94A80046
:1000E000812F0E94A8008D2F0E94A8008C2F0E94B3
:1000F000A800DF91CF911F91089567E070E081E043
:100100000E94580085E30E94A80082E00E94A80097
:100110008FE00E94A80083E00E94A80081E00E9476
:10012000A80080E00E94A80082E50E94A80008952F
:1001300080B58F7780BD10BC80E189B980B580BD66
:1001400088E98AB980B5806880BD86E880BD089559
:100150005D9BFECF8CB95E9BFECF089590936E00A1
:1001600080936D0008951F920F920FB60F92112485
:100170002F933F934F935F936F937F938F939F93AF
:10018000AF93BF93EF93FF938CB1E0916D00F0912B
:100190006E000995FF91EF91BF91AF919F918F9163
:1001A0007F916F915F914F913F912F910F900FBE73
:0A01B0000F901F901895F894FFCFF0
:00000001FF
