S0190000523530335F41546D6567614472697665722E7372656327
S11300000C942A000C9447000C9447000C9447006D
S11300100C9447000C9447000C9447000C94470040
S11300200C9447000C9447000C9447000C94470030
S11300300C9447000C94DF040C9447000C94470084
S11300400C9447000C9447000C9447000C94470010
S11300500C94470011241FBECFE5D8E0DEBFCDBF0E
S113006010E0A0E6B0E0E2E1FAE002C005900D92F3
S1130070A63AB107D9F720E0A6EAB0E001C01D9284
S1130080A53BB207E1F70E9449000C9407050C94C4
S113009000000E9452010E94C40480EF92E00E947A
S11300A0DA0478940E94D80160E080E00E94940110
S11300B080E690E00E947D012FEF8FE493EC2150C5
S11300C080409040E1F700C0000084E090E00E948E
S11300D00A030E94900184E790E00E947D012FEFC3
S11300E08BE792E9215080409040E1F700C0000086
S11300F00E94900185E890E00E947D0184E090E0F8
S11301000E946C03813039F40E9490018EE990E0E2
S11301100E947D0106C00E9490018AE990E00E943D
S11301207D01FFCFCF93C82F61E08DE00E943B0497
S1130130C4FB662760F984E10E943B04C5FB662783
S113014060F985E10E943B04C6FB662760F986E1FD
S11301500E943B046C2F661F6627661F88E10E947D
S11301603B0461E08CE00E943B048FE99FE001972F
S1130170F1F700C0000060E08CE00E943B048FE9CE
S11301809FE00197F1F700C000006C2F617084E1DB
S11301900E943B04C1FB662760F985E10E943B0491
S11301A0C2FB662760F986E10E943B04C3FB662715
S11301B060F988E10E943B0461E08CE00E943B040A
S11301C08FE99FE00197F1F700C0000060E08CE048
S11301D00E943B048FE19EE40197F1F700C0000008
S11301E0CF910895CF93C82F60E08DE00E943B0427
S11301F0C4FB662760F984E10E943B04C5FB6627C3
S113020060F985E10E943B04C6FB662760F986E13C
S11302100E943B046C2F661F6627661F88E10E94BC
S11302203B0461E08CE00E943B048FE99FE001976E
S1130230F1F700C0000060E08CE00E943B048FE90D
S11302409FE00197F1F700C000006C2F617084E11A
S11302500E943B04C1FB662760F985E10E943B04D0
S1130260C2FB662760F986E10E943B04C3FB662754
S113027060F988E10E943B0461E08CE00E943B0449
S11302808FE99FE00197F1F700C0000060E08CE087
S11302900E943B048FE19EE40197F1F700C0000047
S11302A0CF91089561E084E10E94B20361E085E1A9
S11302B00E94B20361E086E10E94B20361E088E13A
S11302C00E94B20361E08DE00E94B20361E08CE021
S11302D00E94B20383E30E94F20082E30E94F200D0
S11302E088E20E94F2008CE00E94F20082E00E9408
S11302F0F20081E00E94F20008950F931F93CF93C0
S11303008C01C0E003C00E949200CF5FF801EC0FA3
S1130310F11D80818111F7CFCF911F910F91089525
S113032081E00E94F2000895CF93DF9300D000D0C3
S1130330CDB7DEB790E8998390EC9A8394E99B83D8
S113034094ED9C83E1E0F0E0EC0FFD1FE80FF11D5C
S11303508081860F0E94F2000F900F900F900F90F3
S1130360DF91CF9108951F93CF93DF93182FC62F5A
S1130370D72F8FEE0E94D40481E00E94D4048FEF23
S11303800E94D4048FEF0E94D4048FEF0E94D404FF
S11303908FEF0E94D404812F0E94D4048D2F0E94D9
S11303A0D4048C2F0E94D404DF91CF911F9108951F
S11303B067E070E081E00E94B30185E30E94D40409
S11303C082E00E94D4048FE00E94D40483E00E945F
S11303D0D40481E00E94D40480E00E94D40482E525
S11303E00E94D404089563E070E081E00E94B301A8
S11303F081E00E94D40480E00E94D40485E00E943D
S1130400D40408958FEE0E94D40481E00E94D404A1
S11304108FEF0E94D4048FEF0E94D4048FEF0E94C8
S1130420D4048FEF0E94D40481E00E94D40480E0BD
S11304300E94D40484E00E94D40482E00E94D40484
S113044081E00E94D40480E00E94D40488E00E94E9
S1130450D40408958FEE0E94D40481E00E94D40451
S11304608FEF0E94D4048FEF0E94D4048FEF0E9478
S1130470D4048FEF0E94D40481E00E94D40480E06D
S11304800E94D40484E00E94D40482E00E94D40434
S113049082E00E94D40480E00E94D40489E00E9497
S11304A0D40408958FEE0E94D40481E00E94D40401
S11304B08FEF0E94D4048FEF0E94D4048FEF0E9428
S11304C0D4048FEF0E94D40481E00E94D40480E01D
S11304D00E94D40483E00E94D40485E00E94D404E2
S11304E080E00E94D40489E00E94D4040895CF934C
S11304F0DF93EC0166E070E081E00E94B30186E0E6
S11305000E94D40481E00E94D4048D2F0E94D4045C
S11305108C2F0E94D404CE010E96892F0E94D404FD
S11305208C2F825F0E94D404DF91CF910895CF93E2
S1130530DF93C82FD92F8FEE0E94D40481E00E944C
S1130540D4048FEF0E94D4048FEF0E94D4048FEF61
S11305500E94D4048FEF0E94D40481E00E94D4044A
S113056080E00E94D40486E00E94D40487E00E94C4
S1130570D40482E00E94D4048D2F0E94D4048C2FD2
S11305800E94D40480E00E94D40484E10E94D40434
S1130590DF91CF9108958FEE0E94D40481E00E94F0
S11305A0D4048FEF0E94D4048FEF0E94D4048FEF01
S11305B00E94D4048FEF0E94D40481E00E94D404EA
S11305C080E00E94D40483E00E94D40483E00E946B
S11305D0D40480E00E94D40487E00E94D4040895E7
S11305E09091A600E92FF0E0E955FF4F80839B30FE
S11305F019F41092A60008959F5F9093A6000895A1
S11306008091B2008A3021F41092B20081E0089502
S113061080E00895CF93DF93EC010E94F3012FEF64
S113062081EE94E0215080409040E1F700C000004A
S11306300E940003882389F30E9402022FEF81EEB7
S113064094E0215080409040E1F700C000000E94F7
S11306500003882389F30E94F3012FEF81EE94E0D5
S1130660215080409040E1F700C000000E94000348
S1130670882389F30E942A022FEF81EE94E021500F
S113068080409040E1F700C000000E9400038823EE
S113069089F30E9452022FEF89E698E121508040AD
S11306A09040E1F700C000000E940003882309F491
S11306B0B4CFCE010E9477022FEF81EE94E0215057
S11306C080409040E1F700C000000E9400038823AE
S11306D081F3DF91CF910895CF93DF93EC010E94D2
S11306E0F3012FEF81EE94E0215080409040E1F738
S11306F000C000000E940003882389F30E940202C4
S11307002FEF81EE94E0215080409040E1F700C04B
S113071000000E940003882389F3CE010E949702FF
S11307202FEF81EE94E0215080409040E1F700C02B
S113073000000E940003882381F30E94CB022FEF64
S113074081EE94E0215080409040E1F700C0000029
S11307508091B000811102C081E001C080E0DF918E
S1130760CF9108959DEC899F912D1124292F2695D1
S113077026952695220F322F330F330F230F821B1A
S1130780282F969596959695662319F06130E1F198
S113079008959230A9F018F4913031F0089593300F
S11307A0D9F0943029F108953AB381E090E002C081
S11307B0880F991F2A95E2F7809583238ABB0895B1
S11307C037B381E090E002C0880F991F2A95E2F7C1
S11307D08095832387BB089534B381E090E002C001
S11307E0880F991F2A95E2F78095832384BB089587
S11307F031B381E090E002C0880F991F2A95E2F797
S11308008095832381BB08959230A1F018F4913030
S113081031F008959330C9F0943011F108953AB34A
S113082081E090E002C0880F991F2A95E2F7832B9C
S11308308ABB089537B381E090E002C0880F991F06
S11308402A95E2F7832B87BB089534B381E090E0C7
S113085002C0880F991F2A95E2F7832B84BB089561
S113086031B381E090E002C0880F991F2A95E2F726
S1130870832B81BB08959DEC899F912D1124292FF1
S1130880269526952695220F322F330F330F230FEB
S1130890821B282F969596959695662319F06130BC
S11308A0E1F108959230A9F018F4913031F00895EF
S11308B09330D9F0943029F108953BB381E090E06E
S11308C002C0880F991F2A95E2F7809583238BBB7A
S11308D0089538B381E090E002C0880F991F2A95EB
S11308E0E2F78095832388BB089535B381E090E0D7
S11308F002C0880F991F2A95E2F78095832385BB50
S1130900089532B381E090E002C0880F991F2A95C0
S1130910E2F78095832382BB08959230A1F018F406
S1130920913031F008959330C9F0943011F1089565
S11309303BB381E090E002C0880F991F2A95E2F74B
S1130940832B8BBB089538B381E090E002C0880FFD
S1130950991F2A95E2F7832B88BB089535B381E06C
S113096090E002C0880F991F2A95E2F7832B85BB7C
S1130970089532B381E090E002C0880F991F2A9550
S1130980E2F7832B82BB089580B58F7780BD10BCBE
S113099080E189B980B580BD88E98AB980B580686D
S11309A080BD86E880BD08955D9BFECF8CB95E9BBB
S11309B0FECF08959093B4008093B30008951F92DE
S11309C00F920FB60F9211242F933F934F935F937F
S11309D06F937F938F939F93AF93BF93EF93FF9303
S11309E08CB1E091B300F091B4000995FF91EF91BF
S11309F0BF91AF919F918F917F916F915F914F9133
S1130A003F912F910F900FBE0F901F901895F8945F
S1050A10FFCF12
S1130A12505554202046494E47455220544F2053A6
S1130A2243414E004E45572046494E4745522053B6
S1130A3241564544005055542046494E4720544F90
S1130A42204348204D41544348004E4F54204D41C9
S1090A5254434845440032
S9030000FC
