S0190000523530335F41546D6567614472697665722E7372656327
S11300000C942A000C943C000C943C000C943C008E
S11300100C943C000C943C000C943C000C943C006C
S11300200C943C000C943C000C943C000C943C005C
S11300300C943C000C9498000C943C000C943C00F0
S11300400C943C000C943C000C943C000C943C003C
S11300500C943C0011241FBECFE5D8E0DEBFCDBF19
S113006020E0A0E6B0E001C01D92A236B207E1F79D
S11300700E943E000C94C0000C9400000E94830077
S11300800E946800FFCF1F93CF93DF93182FC62FD2
S1130090D72F8FEE0E94920081E00E9492008FEF92
S11300A00E9492008FEF0E9492008FEF0E949200B4
S11300B08FEF0E949200812F0E9492008D2F0E9448
S11300C092008C2F0E949200DF91CF911F9108958E
S11300D067E070E081E00E94430085E30E949200A3
S11300E081E00E94920080EF0E94920081E00E94D1
S11300F092008FEF0E94920082E00E9492008EE2B2
S11301000E949200089580E189B980B58F7780BDFF
S113011080B580BD88E98AB980B5806880BD86E8ED
S113012080BD08955D9BFECF8CB95E9BFECF089584
S11301301F920F920FB60F9211242F933F934F9358
S11301405F936F937F938F939F93AF93BF93EF933B
S1130150FF938CB1E0916000F09161000995FF91EB
S1130160EF91BF91AF919F918F917F916F915F912B
S11301704F913F912F910F900FBE0F901F901895A4
S1070180F894FFCF1D
S9030000FC
