S0190000523530335F41546D6567614472697665722E7372656327
S11300000C942A000C9447000C9447000C9447006D
S11300100C9447000C9447000C9447000C94470040
S11300200C9447000C9447000C9447000C94470030
S11300300C9447000C9432030C9447000C94470032
S11300400C9447000C9447000C9447000C94470010
S11300500C94470011241FBECFE5D8E0DEBFCDBF0E
S113006010E0A0E6B0E0E8EBF6E002C005900D92E7
S1130070AA3CB107D9F720E0AAECB0E001C01D9278
S1130080AB3DB207E1F70E9449000C945A030C946B
S113009000000E94170386E792E00E942D037894E3
S11300A00E94EB0160E080E00E94A70180E690E0FE
S11300B00E9490012FEF8FE493EC215080409040F8
S11300C0E1F700C000000E9406022FEF89EF90E0E4
S11300D0215080409040E1F700C000000E94860259
S11300E08823E1F360E081E00E94A70185E790E0C6
S11300F00E9490010E9415022FEF89EF90E0215099
S113010080409040E1F700C000000E9486028823EE
S1130110E1F360E082E00E94A70185E890E00E949C
S113012090010E9427022FEF89EF90E02150804038
S11301309040E1F700C000000E9486028823E1F3AA
S113014060E083E00E94A7018AE990E00E949001A8
S11301500E94A3010E9439022FEF89EF90E0215001
S113016080409040E1F700C000000E94860288238E
S1130170E1F360E080E00E94A7018FEA90E00E9432
S113018090010E9448020E9486028823E1F360E005
S113019080E00E94A7018EEB90E00E949001FFCFC7
S11301A0CF93C82F61E08DE00E948E02C4FB6627C6
S11301B060F984E10E948E02C5FB662760F985E13F
S11301C00E948E02C6FB662760F986E10E948E02B9
S11301D06C2F661F6627661F88E10E948E0261E00D
S11301E08CE00E948E028FE99FE00197F1F700C036
S11301F0000060E08CE00E948E028FE99FE001978E
S1130200F1F700C000006C2F617084E10E948E023F
S1130210C1FB662760F985E10E948E02C2FB662756
S113022060F986E10E948E02C3FB662760F988E1CB
S11302300E948E0261E08CE00E948E028FE99FE0B2
S11302400197F1F700C0000060E08CE00E948E028C
S11302508FE19EE40197F1F700C00000CF9108956B
S1130260CF93C82F60E08DE00E948E02C4FB662706
S113027060F984E10E948E02C5FB662760F985E17E
S11302800E948E02C6FB662760F986E10E948E02F8
S11302906C2F661F6627661F88E10E948E0261E04C
S11302A08CE00E948E028FE99FE00197F1F700C075
S11302B0000060E08CE00E948E028FE99FE00197CD
S11302C0F1F700C000006C2F617084E10E948E027F
S11302D0C1FB662760F985E10E948E02C2FB662796
S11302E060F986E10E948E02C3FB662760F988E10B
S11302F00E948E0261E08CE00E948E028FE99FE0F2
S11303000197F1F700C0000060E08CE00E948E02CB
S11303108FE19EE40197F1F700C00000CF910895AA
S11303200F931F93CF938C01C0E003C00E94D000B1
S1130330CF5FF801EC0FF11D80818111F7CFCF91D0
S11303401F910F91089581E00E9430010895CF9389
S1130350DF9300D000D0CDB7DEB790E8998390EC5E
S11303609A8394E99B8394ED9C83E1E0F0E0EC0FA5
S1130370FD1FE80FF11D8081860F0E9430010F9050
S11303800F900F900F90DF91CF9108951F93CF930B
S1130390DF93182FC62FD72F8FEE0E94270381E0FB
S11303A00E9427038FEF0E9427038FEF0E942703E9
S11303B08FEF0E9427038FEF0E942703812F0E9453
S11303C027038D2F0E9427038C2F0E942703DF9180
S11303D0CF911F91089567E070E081E00E94C6010B
S11303E085E30E94270382E00E9427038FE00E9496
S11303F0270383E00E94270381E00E94270380E013
S11304000E94270382E50E942703089563E070E0B9
S113041081E00E94C60181E00E94270380E00E94DF
S1130420270385E00E942703089564E070E081E0DB
S11304300E94C60182E00E94270381E00E942703F4
S113044080E00E94270388E00E942703089564E067
S113045070E081E00E94C60182E00E94270382E0EE
S11304600E94270380E00E94270389E00E9427035B
S1130470089563E070E081E00E94C60185E00E9477
S1130480270380E00E94270389E00E942703089540
S1130490CF93DF9366E070E081E00E94C60186E0BE
S11304A00E94270381E00E9427038091D8000E94C4
S11304B02703C7EDD0E088810E9427038091D700ED
S11304C09091D8000E96892F0E9427038881825F1D
S11304D00E9427038091D7009091D80001969093B1
S11304E0D8008093D700DF91CF9108959091CA00EE
S11304F0E92FF0E0E553FF4F80839B3019F410920D
S1130500CA0008959F5F9093CA0008958091D60011
S11305108A3011F481E0089580E008959DEC899F6C
S1130520912D1124292F269526952695220F322FB9
S1130530330F330F230F821B282F9695969596958C
S1130540662319F06130E1F108959230A9F018F4AE
S1130550913031F008959330D9F0943029F1089511
S11305603BB381E090E002C0880F991F2A95E2F71F
S1130570809583238BBB089538B381E090E002C05B
S1130580880F991F2A95E2F78095832388BB0895E5
S113059035B381E090E002C0880F991F2A95E2F7F5
S11305A08095832385BB089532B381E090E002C037
S11305B0880F991F2A95E2F78095832382BB0895BB
S11305C09230A1F018F4913031F008959330C9F0CD
S11305D0943011F108953BB381E090E002C0880F9C
S11305E0991F2A95E2F7832B8BBB089538B381E0DA
S11305F090E002C0880F991F2A95E2F7832B88BBED
S1130600089535B381E090E002C0880F991F2A95C0
S1130610E2F7832B85BB089532B381E090E002C0FA
S1130620880F991F2A95E2F7832B82BB089580B522
S11306308F7780BD10BC80E189B980B580BD88E921
S11306408AB980B5806880BD86E880BD08955D9BC9
S1130650FECF8CB95E9BFECF08959093DA00809311
S1130660D90008951F920F920FB60F9211242F9361
S11306703F934F935F936F937F938F939F93AF9326
S1130680BF93EF93FF938CB1E091D900F091DA001E
S11306900995FF91EF91BF91AF919F918F917F91B8
S11306A06F915F914F913F912F910F900FBE0F90DB
S10B06B01F901895F894FFCF88
S11306B850555420412046494E47455220544F2016
S11306C85343414E00494D4147452047454E455205
S11306D8415445440043484152312046494C452041
S11306E847454E45524154454400434841523220FF
S11306F846494C452047454E4552415445440054CB
S1130708454D502047454E455241544544005445B3
S10D07184D502053544F5245440045
S9030000FC
