S0190000523530335F41546D6567614472697665722E7372656327
S11300000C942A000C9447000C9447000C9447006D
S11300100C9447000C9447000C9447000C94470040
S11300200C9447000C9447000C9447000C94470030
S11300300C9447000C94FA040C9447000C94470069
S11300400C9447000C9447000C9447000C94470010
S11300500C94470011241FBECFE5D8E0DEBFCDBF0E
S113006010E0A0E6B0E0E8E4FAE002C005900D92EA
S1130070A83FB107D9F721E0A8EFB0E001C01D9275
S1130080A730B207E1F70E9449000C9422050C94B2
S113009000000E9423020E94DF0483EB93E00E948D
S11300A0F50478940E94A90260E080E00E94650251
S11300B080E690E00E944E022FEF8FE493EC2150F3
S11300C080409040E1F700C000000E94C4022FEF7E
S11300D081EE94E0215080409040E1F700C00000A0
S11300E00E94C303882389F360E081E00E946502D3
S11300F085E790E00E944E020E94D3022FEF81EE2A
S113010094E0215080409040E1F700C000000E943C
S1130110C303882389F360E082E00E94650285E8D6
S113012090E00E944E020E94C4022FEF81EE94E000
S1130130215080409040E1F700C000000E94C303BA
S1130140882389F360E083E00E94650284E990E0FB
S11301500E944E020E94FB022FEF81EE94E0215098
S113016080409040E1F700C000000E94C303882350
S113017089F30E94610260E080E00E94650286EAE1
S113018090E00E944E020E9423032FEF89E698E13B
S1130190215080409040E1F700C000000E94C3035A
S11301A0882309F492CF60E081E00E94650285EB28
S11301B090E00E944E020E9448032FEF81EE94E0EB
S11301C0215080409040E1F700C000000E94C3032A
S11301D0882389F360E082E00E9465028EEB90E060
S11301E00E944E022FEF87EA91E621508040904012
S11301F0E1F700C000000E94C4022FEF81EE94E0FA
S1130200215080409040E1F700C000000E94C303E9
S1130210882389F360E083E00E9465028AEC90E021
S11302200E944E020E94D3022FEF81EE94E02150EF
S113023080409040E1F700C000000E94C30388237F
S113024089F30E94610260E080E00E94650285E813
S113025090E00E944E020E9460032FEF81EE94E032
S1130260215080409040E1F700C000000E94C30389
S1130270882389F360E081E00E9465028AED90E0C2
S11302800E944E020E948E032FEF81EE94E02150D3
S113029080409040E1F700C000008091020181118C
S11302A009C060E082E00E9465028FEE90E00E9447
S11302B04E0208C060E082E00E9465028BEE90E08E
S11302C00E944E02FFCFCF93C82F61E08DE00E94C1
S11302D05604C4FB662760F984E10E945604C5FBFA
S11302E0662760F985E10E945604C6FB662760F91B
S11302F086E10E9456046C2F661F6627661F88E1FC
S11303000E94560461E08CE00E9456048FE99FE04D
S11303100197F1F700C0000060E08CE00E945604F1
S11303208FE99FE00197F1F700C000006C2F617026
S113033084E10E945604C1FB662760F985E10E94AE
S11303405604C2FB662760F986E10E945604C3FB8B
S1130350662760F988E10E94560461E08CE00E94FF
S113036056048FE99FE00197F1F700C0000060E0B8
S11303708CE00E9456048FE19EE40197F1F700C0DF
S11303800000CF910895CF93C82F60E08DE00E94C4
S11303905604C4FB662760F984E10E945604C5FB39
S11303A0662760F985E10E945604C6FB662760F95A
S11303B086E10E9456046C2F661F6627661F88E13B
S11303C00E94560461E08CE00E9456048FE99FE08D
S11303D00197F1F700C0000060E08CE00E94560431
S11303E08FE99FE00197F1F700C000006C2F617066
S11303F084E10E945604C1FB662760F985E10E94EE
S11304005604C2FB662760F986E10E945604C3FBCA
S1130410662760F988E10E94560461E08CE00E943E
S113042056048FE99FE00197F1F700C0000060E0F7
S11304308CE00E9456048FE19EE40197F1F700C01E
S11304400000CF91089561E084E10E94CD0361E052
S113045085E10E94CD0361E086E10E94CD0361E065
S113046088E10E94CD0361E08DE00E94CD0361E04C
S11304708CE00E94CD0383E30E94C30182E30E94C7
S1130480C30188E20E94C3018CE00E94C30182E0A0
S11304900E94C30181E00E94C30108950F931F933A
S11304A0CF938C01C0E003C00E946301CF5FF801C9
S11304B0EC0FF11D80818111F7CFCF911F910F9126
S11304C0089581E00E94C3010895CF93DF9300D083
S11304D000D0CDB7DEB790E8998390EC9A8394E985
S11304E09B8394ED9C83E1E0F0E0EC0FFD1FE80FAB
S11304F0F11D8081860F0E94C3010F900F900F9011
S11305000F90DF91CF9108951F93CF93DF93182F0E
S1130510C62FD72F8FEE0E94EF0481E00E94EF04D4
S11305208FEF0E94EF048FEF0E94EF048FEF0E9481
S1130530EF048FEF0E94EF04812F0E94EF048D2FB0
S11305400E94EF048C2F0E94EF04DF91CF911F9142
S1130550089567E070E081E00E94840285E30E94D0
S1130560EF0482E00E94EF048FE00E94EF0483E036
S11305700E94EF0481E00E94EF0480E00E94EF04F7
S113058082E50E94EF04089563E070E081E00E9438
S1130590840281E00E94EF0480E00E94EF0485E081
S11305A00E94EF0408958FEE0E94EF0481E00E9400
S11305B0EF048FEF0E94EF048FEF0E94EF048FEFA0
S11305C00E94EF048FEF0E94EF0481E00E94EF0489
S11305D080E00E94EF0484E00E94EF0482E00E9425
S11305E0EF0481E00E94EF0480E00E94EF0488E0C1
S11305F00E94EF0408958FEE0E94EF0481E00E94B0
S1130600EF048FEF0E94EF048FEF0E94EF048FEF4F
S11306100E94EF048FEF0E94EF0481E00E94EF0438
S113062080E00E94EF0484E00E94EF0482E00E94D4
S1130630EF0482E00E94EF0480E00E94EF0489E06E
S11306400E94EF0408958FEE0E94EF0481E00E945F
S1130650EF048FEF0E94EF048FEF0E94EF048FEFFF
S11306600E94EF048FEF0E94EF0481E00E94EF04E8
S113067080E00E94EF0483E00E94EF0485E00E9482
S1130680EF0480E00E94EF0489E00E94EF040895E3
S113069066E070E081E00E94840286E00E94EF043C
S11306A081E00E94EF0480E00E94EF0484E00E9455
S11306B0EF0480E00E94EF0482E10E94EF040895B9
S11306C08FEE0E94EF0481E00E94EF048FEF0E94FE
S11306D0EF048FEF0E94EF048FEF0E94EF048FEF7F
S11306E00E94EF0481E00E94EF0480E00E94EF0486
S11306F086E00E94EF0487E00E94EF0482E00E94FB
S1130700EF0480E00E94EF0484E00E94EF0480E0A4
S11307100E94EF0484E10E94EF0408958FEE0E948A
S1130720EF0481E00E94EF048FEF0E94EF048FEF4B
S11307300E94EF048FEF0E94EF048FEF0E94EF04FA
S113074081E00E94EF0480E00E94EF0483E00E94B5
S1130750EF0483E00E94EF0480E00E94EF0487E04E
S11307600E94EF0408959091F800E92FF0E0E7501B
S1130770FF4F80839B3019F41092F80008959F5F17
S11307809093F8000895809104018A3021F4109226
S1130790040181E0089580E008959DEC899F912DE6
S11307A01124292F269526952695220F322F330FB3
S11307B0330F230F821B282F9695969596956623C3
S11307C019F06130E1F108959230A9F018F49130F4
S11307D031F008959330D9F0943029F108953AB363
S11307E081E090E002C0880F991F2A95E2F7809576
S11307F083238ABB089537B381E090E002C0880F59
S1130800991F2A95E2F78095832387BB089534B313
S113081081E090E002C0880F991F2A95E2F7809545
S1130820832384BB089531B381E090E002C0880F34
S1130830991F2A95E2F78095832381BB089592300E
S1130840A1F018F4913031F008959330C9F0943048
S113085011F108953AB381E090E002C0880F991F26
S11308602A95E2F7832B8ABB089537B381E090E0A1
S113087002C0880F991F2A95E2F7832B87BB08953E
S113088034B381E090E002C0880F991F2A95E2F703
S1130890832B84BB089531B381E090E002C0880FBC
S11308A0991F2A95E2F7832B81BB08959DEC899FBC
S11308B0912D1124292F269526952695220F322F26
S11308C0330F330F230F821B282F969596959695F9
S11308D0662319F06130E1F108959230A9F018F41B
S11308E0913031F008959330D9F0943029F108957E
S11308F03BB381E090E002C0880F991F2A95E2F78C
S1130900809583238BBB089538B381E090E002C0C7
S1130910880F991F2A95E2F78095832388BB089551
S113092035B381E090E002C0880F991F2A95E2F761
S11309308095832385BB089532B381E090E002C0A3
S1130940880F991F2A95E2F78095832382BB089527
S11309509230A1F018F4913031F008959330C9F039
S1130960943011F108953BB381E090E002C0880F08
S1130970991F2A95E2F7832B8BBB089538B381E046
S113098090E002C0880F991F2A95E2F7832B88BB59
S1130990089535B381E090E002C0880F991F2A952D
S11309A0E2F7832B85BB089532B381E090E002C067
S11309B0880F991F2A95E2F7832B82BB089580B58F
S11309C08F7780BD10BC80E189B980B580BD88E98E
S11309D08AB980B5806880BD86E880BD08955D9B36
S11309E0FECF8CB95E9BFECF089590930601809351
S11309F0050108951F920F920FB60F9211242F93A1
S1130A003F934F935F936F937F938F939F93AF9392
S1130A10BF93EF93FF938CB1E0910501F091060130
S1130A200995FF91EF91BF91AF919F918F917F9124
S1130A306F915F914F913F912F910F900FBE0F9047
S10B0A401F901895F894FFCFF4
S1130A4850555420412046494E47455220544F2082
S1130A585343414E00464952535420494D4147455A
S1130A682047454E0043484152312046494C4520D1
S1130A7847454E005345434F4E454420494D414751
S1130A88452047454E0043484152322046494C458B
S1130A982047454E0054454D502047454E00544587
S1130AA84D502053544F52454400436865636B20AE
S1130AB8494D4147452047454E0043484152204649
S1130AC8494C45204C4F41444544004E4F54204D19
S10B0AD8415443484544000069
S9030000FC
